:1000000010308A0000280000FF00030E8301A100C9
:100010000A08A0008A010408A2007708A300780853
:10002000A4007908A5007A08A60003170D08031399
:10003000A70003170F080313A80003170C080313E6
:10004000A90003170E080313AA00831383120B1EC3
:100050002B288B184C28220884002308F70024083A
:10006000F8002508F9002608FA00270803178D0074
:100070000313280803178F000313290803178C00A4
:1000800003132A0803178E00031320088A00210E89
:100090008300FF0E7F0E09008A110A12CB2C0A1072
:1000A0008A100A11820728340C3401340634553082
:1000B00084008313000803196B280130F800F7014E
:1000C000F70B6028F80B5F284A30F700F70B66281B
:1000D0006928800B5D280800560B7028D7018428FA
:1000E0005608023C031D77284030D7008428560864
:1000F000033C031D7E281430D70084285608043C96
:10010000031D84285430D70001305502D707570803
:100110008038D800D9015808DA0008108316081072
:1001200008168816081788178312881483168810F3
:100130000000831208158316081100008312DD01E8
:100140008316081600308312081A0130DD04831666
:10015000881600308312881A0130F7000310F70D5B
:100160007708DD048316081700308312081B01305E
:10017000F700F70DF70DFC30F7057708DD0483165F
:10018000881700308312881B0130F700F70DF70D38
:10019000F70DF830F7057708DD045D08F8007808FA
:1001A000DC0008118316081100008312081583165D
:1001B000081100008312DD01831608160030831237
:1001C000081A0130DD048316881600308312881A5D
:1001D0000130F7000310F70D7708DD0483160817C8
:1001E00000308312081B0130F700F70DF70DFC30CB
:1001F000F7057708DD048316881700308312881B03
:100200000130F700F70DF70DF70DF830F705770817
:10021000DD045D08F8007808DB000811831608117A
:10022000081288120813881383125C0EF700F0304E
:10023000F70577085B04F8007808DB00DB1F22294C
:1002400083169028D908031D272908102829081487
:10025000831608100000831288108316881000008F
:10026000831208118316081183125A0EDB000F3017
:10027000DB055B08DC005C183F29081240290816E2
:10028000831608128312DC18472988124829881619
:100290008316881283125C194F29081350290817F6
:1002A000831608138312DC195729881358298817D5
:1002B000831688130000831208158316081160291D
:1002C000831208118316081183125A080F39DB00B4
:1002D0005B08DC005C186E2908126F29081683166B
:1002E00008128312DC18762988127729881683165B
:1002F000881283125C197E2908137F290817831638
:1003000008138312DC198629881387298817831616
:100310008813000083120815831608118F29831291
:100320000811831608118312080054080C3A0319A7
:10033000A029063A0319AE2A023A0319B42ABF2BA0
:10034000D9010130DA000810831608100816881643
:1003500008178817831288148316881000008312E8
:1003600008158316081100008312DD018316081694
:1003700000308312081A0130DD048316881600301D
:100380008312881A0130F7000310F70D7708DD0497
:100390008316081700308312081B0130F700F70D91
:1003A000F70DFC30F7057708DD0483168817003059
:1003B0008312881B0130F700F70DF70DF70DF830A9
:1003C000F7057708DD045D08F8007808DC000811FF
:1003D0008316081100008312081583160811000007
:1003E0008312DD018316081600308312081A0130CB
:1003F000DD048316881600308312881A0130F70056
:100400000310F70D7708DD048316081700308312F8
:10041000081B0130F700F70DF70DFC30F7057708E2
:10042000DD048316881700308312881B0130F70023
:10043000F70DF70DF70DF830F7057708DD045D08C7
:10044000F8007808DB0008118316081108128812DA
:100450000813881383125C0EF700F030F705770855
:100460005B04F8007808DB00DB1F382A8316A62916
:10047000D908031D3D2A08103E2A081483160810C7
:100480000000831288108316881000008312081160
:100490008316081183125A0EDB000F30DB055B0850
:1004A000DC005C18552A0812562A08168316081212
:1004B0008312DC185D2A88125E2A88168316881239
:1004C00083125C19652A0813662A08178316081315
:1004D0008312DC196D2A88136E2A881783168813F5
:1004E00000008312081583160811762A831208115A
:1004F0008316081183125A080F39DB005B08DC00F1
:100500005C18842A0812852A08168316081283129A
:10051000DC188C2A88128D2A88168316881283127A
:100520005C19942A0813952A081783160813831256
:10053000DC199C2A88139D2A8817831688130000CB
:100540008312081583160811A52A83120811831631
:10055000081102308312D5005720CA2C0130D50073
:100560000230D6006C20CA2CD9011030DA000810F5
:10057000831608100816881608178817831288141F
:1005800083168810000083120815831608110000D6
:100590008312DD018316081600308312081A013019
:1005A000DD048316881600308312881A0130F700A4
:1005B0000310F70D7708DD04831608170030831247
:1005C000081B0130F700F70DF70DFC30F705770831
:1005D000DD048316881700308312881B0130F70072
:1005E000F70DF70DF70DF830F7057708DD045D0816
:1005F000F8007808DC000811831608110000831247
:1006000008158316081100008312DD0183160816F1
:1006100000308312081A0130DD048316881600307A
:100620008312881A0130F7000310F70D7708DD04F4
:100630008316081700308312081B0130F700F70DEE
:10064000F70DFC30F7057708DD04831688170030B6
:100650008312881B0130F700F70DF70DF70DF83006
:10066000F7057708DD045D08F8007808DB0008115D
:1006700083160811081288120813881383125C0E5F
:10068000F700F030F70577085B04F8007808DB0026
:10069000DB1F4C2B8316BA2AD908031D512B0810D7
:1006A000522B08148316081000008312881083163A
:1006B00088100000831208118316081183125A0E45
:1006C000DB000F30DB055B08DC005C18692B0812CF
:1006D0006A2B0816831608128312DC18712B8812F5
:1006E000722B88168316881283125C19792B0813D3
:1006F0007A2B0817831608138312DC19812B8813B1
:10070000822B88178316881300008312081583161E
:1007100008118A2B831208118316081183125A08B4
:100720000F39DB005B08DC005C18982B0812992B52
:100730000816831608128312DC18A02B8812A12B2E
:1007400088168316881283125C19A82B0813A92B0C
:100750000817831608138312DC19B02B8813B12BEA
:100760008817831688130000831208158316081152
:10077000B92B83120811831608118312CA2C013079
:10078000D9005408DA0008108316081008168816D5
:1007900008178817831288148316881000008312A4
:1007A00008158316081100008312DD018316081650
:1007B00000308312081A0130DD04831688160030D9
:1007C0008312881A0130F7000310F70D7708DD0453
:1007D0008316081700308312081B0130F700F70D4D
:1007E000F70DFC30F7057708DD0483168817003015
:1007F0008312881B0130F700F70DF70DF70DF83065
:10080000F7057708DD045D08F8007808DC000811BA
:1008100083160811000083120815831608110000C2
:100820008312DD018316081600308312081A013086
:10083000DD048316881600308312881A0130F70011
:100840000310F70D7708DD048316081700308312B4
:10085000081B0130F700F70DF70DFC30F70577089E
:10086000DD048316881700308312881B0130F700DF
:10087000F70DF70DF70DF830F7057708DD045D0883
:10088000F8007808DB000811831608110812881296
:100890000813881383125C0EF700F030F705770811
:1008A0005B04F8007808DB00DB1F582C8316C62B8E
:1008B000D908031D5D2C08105E2C0814831608103F
:1008C000000083128810831688100000831208111C
:1008D0008316081183125A0EDB000F30DB055B080C
:1008E000DC005C18752C0812762C0816831608128A
:1008F0008312DC187D2C88127E2C881683168812B1
:1009000083125C19852C0813862C0817831608138C
:100910008312DC198D2C88138E2C8817831688136C
:1009200000008312081583160811962C83120811F3
:100930008316081183125A080F39DB005B08DC00AC
:100940005C18A42C0812A52C081683160812831212
:10095000DC18AC2C8812AD2C8816831688128312F2
:100960005C19B42C0813B52C0817831608138312CE
:10097000DC19BC2C8813BD2C881783168813000043
:100980008312081583160811C52C831208118316CB
:10099000081183120800B30A0C30D40095213308E3
:1009A000063C0319B3013308F8008B108A110A12B0
:1009B0002B282010201020100000D320C910211057
:1009C00000012010201020100001C827CE233A106B
:1009D00000002010A020552A4F10D720D422D22466
:1009E000CE232010201000012010CE23D52C452727
:1009F0002028C8242024552747102010000120104B
:100A00002010CD29561D31183119301BB41C20106F
:100A10002010000120102010A0244F2ABA18B0186E
:100A200032183310201020100001D322D42A501085
:100A30004F27A0274623A0294527D327521000017E
:100A4000D4224D283A100001C82ACD243A100001C2
:100A50002D0043002D00251000014310200025101B
:100A60002000D4224D283A004310200025102000F9
:100A7000C427A0204D10C420541D200025100001C3
:100A80002027C8204E10CE2A5410C4222021412AEB
:100A9000202A412A0001C2274D104F272000C227DB
:100AA0004D104F234600D12A412AA0274E100001A5
:100AB000D12A412AA027462300014E34E93274107E
:100AC000C437A0274E10D12A412A20102000D4324A
:100AD0006D383A1025183232000043102010000102
:100AE00020102010201000012010201020102010B5
:100AF00020102010201020102010201000012010A5
:100B00002010201020102010201020102010201065
:100B1000201000014E34E9327410C437A027462358
:100B2000A028D52054102000D4326D383A10251852
:100B3000323200014310201000012010201020103C
:100B40000001201020102010201020102010201054
:100B50002010201020100001201020102010201044
:100B60002010201020102010201020100001CD3A5D
:100B70006310C437A0206D104F272021CF262010EE
:100B80002000C83AED343A10251832320001251001
:100B90000001CD3A6310C437A0206D104F234610DA
:100BA000C2274D102000C83AED343A1025183232D1
:100BB000000125100001C2274D104F272000C22739
:100BC0004D104F234600D12A412AA0274E10000184
:100BD000D12A412AA027462300003210320883166A
:100BE00087008312B21032088316870083123211F5
:100BF0003208831687008312B211320883168700E9
:100C00000812881208138813081108110810081018
:100C10008810881083120810831608108312881019
:100C20008316881083120811831608118312AB01F2
:100C30008B1BAB178B130F30D5005720AB1B8B17BB
:100C40000130C2004208033C031C5D2E0330DC006F
:100C50005C182C2E08122D2E0816831608128312EB
:100C6000DC18342E8812352E8816831688128312CB
:100C70005C193C2E08133D2E0817831608138312A7
:100C8000DC19442E8813452E88178316881300001C
:100C900083120815831608114D2E8312081183162E
:100CA00008118312AB018B1BAB178B130530D500DA
:100CB0005720AB1B8B17C20A222E0230DC005C18B7
:100CC000632E0812642E0816831608128312DC188D
:100CD0006B2E88126C2E88168316881283125C196C
:100CE000732E0813742E0817831608138312DC1949
:100CF0007B2E88137C2E881783168813000083129E
:100D0000081583160811842E831208118316081102
:100D10008312C2014208033C031C9D2F42084F204E
:100D2000C300D9014308DA0008108316081008161A
:100D300088160817881783128814831688100000F5
:100D4000831208158316081100008312DD01831633
:100D5000081600308312081A0130DD048316881645
:100D600000308312881A0130F7000310F70D77085E
:100D7000DD048316081700308312081B0130F700CA
:100D8000F70DF70DFC30F7057708DD04831688179B
:100D900000308312881B0130F700F70DF70DF70DB7
:100DA000F830F7057708DD045D08F8007808DC0006
:100DB0000811831608110000831208158316081104
:100DC00000008312DD018316081600308312081A12
:100DD0000130DD048316881600308312881A013032
:100DE000F7000310F70D7708DD04831608170030AD
:100DF0008312081B0130F700F70DF70DFC30F705E3
:100E00007708DD048316881700308312881B0130B1
:100E1000F700F70DF70DF70DF830F7057708DD044B
:100E20005D08F8007808DB00081183160811081225
:100E300088120813881383125C0EF700F030F70550
:100E400077085B04F8007808DB00DB1F292F831686
:100E5000972ED908031D2E2F08102F2F0814831644
:100E60000810000083128810831688100000831277
:100E700008118316081183125A0EDB000F30DB05B0
:100E80005B08DC005C18462F0812472F08168316F3
:100E900008128312DC184E2F88124F2F88168316E3
:100EA000881283125C19562F0813572F08178316C0
:100EB00008138312DC195E2F88135F2F881783169F
:100EC000881300008312081583160811672F8312F8
:100ED00008118316081183125A080F39DB005B08CA
:100EE000DC005C18752F0812762F0816831608127E
:100EF0008312DC187D2F88127E2F881683168812A5
:100F000083125C19852F0813862F08178316081380
:100F10008312DC198D2F88138E2F88178316881360
:100F200000008312081583160811962F83120811EA
:100F3000831608118312C20A8A2E8A110A1666289D
:100F40008E30F7004208F7024308F9004408F80021
:100F5000F917F7080319B72F0310F908031DB32F6A
:100F6000F8080319B72FF90CF80CF70BAC2FC31FB7
:100F7000BE2FF809F909F80A0319F90A080043080D
:100F80004202031CDE2F32103208831687008312C0
:100F90000714AB018B1BAB178B130130D50004304A
:100FA000D6006C20AB1B8B17DB3003178D00053090
:100FB0008F008A15031300208A11FC2F4408430276
:100FC000031CFC2F3210320883168700831207108F
:100FD000AB018B1BAB178B130130D5000430D6004F
:100FE0006C20AB1B8B17DF3003178D0005308F0093
:0E0FF0008A15031300208A118A110A160E2A90
:101000000B08C5008B13831603178C170C140000F4
:10101000000083120313C51B8B1703170C087F39BD
:10102000031964280313C50003170D080313C60032
:1010300003170F080313C700AB018B1BAB178B13F0
:101040004508D4008A1195218A15AB1B8B174608D9
:1010500003178D000313470803178F0003130B08B2
:10106000C8008B13831603178C170C1400000000A4
:1010700083120313C81B8B1703170C0D0E0D7F393A
:10108000031964280313C50003170D080313C600D2
:1010900003170F080313C700AB018B1BAB178B1390
:1010A0004508D4008A1195218A15AB1B8B17460879
:1010B00003178D000313470803178F008D0A0319C8
:1010C0008F0A031300280317031308008316061260
:1010D0000612831206121E30C200423084008313AF
:1010E0000008031980280630F800F701F70B76286E
:1010F000F80B75287B30F700F70B7C28800B7328E2
:101100008316061283120616831606164230F7005F
:10111000F70B8828000006168312061AA2288430CE
:10112000F700F70B91289428000083160616831207
:10113000061EA2280130B1008430F700F70B9E286C
:10114000A1280000310B5329C2014208043C031CB2
:10115000F128C3014308073C031CEF288316061639
:101160008312061EAE285230F700F70BB528B828B8
:101170000000831606168312061ED9282C3042075B
:10118000F800FA010318FA0A2C304207840083138E
:101190000310000D0138C6007808840083137A1804
:1011A000831746088000831606168312061AD32872
:1011B000ED282C304207F800FA010318FA0A2C3007
:1011C0004207840083130310000DC60078088400D2
:1011D00083137A18831746088000C30AAA28C20A14
:1011E000A5282E082F072D072C073002031DFD28E8
:1011F0002E08B4002C08B6004329AB018B1BAB179B
:101200008B130130D5000230D6008A116C208A156C
:10121000AB1B8B17D93003178D0004308F000313DD
:1012200000200430C200AB018B1BAB178B13FA30CC
:10123000D5008A1157208A15AB1B8B17C20B1329B7
:10124000AB018B1BAB178B130130D5000230D600DE
:101250008A116C208A15AB1B8B17DD3003178D00AC
:1012600004308F00031300200430C200AB018B1B3D
:10127000AB178B13FA30D5008A1157208A15AB1B98
:101280008B17C20B36290230C200AB018B1BAB1788
:101290008B139630D5008A1157208A15AB1B8B17FC
:1012A000C20B45299929AB018B1BAB178B1301305E
:1012B000D5000230D6008A116C208A15AB1B8B1723
:1012C000E13003178D0004308F0003130020043039
:1012D000C200AB018B1BAB178B13FA30D5008A1100
:1012E00057208A15AB1B8B17C20B6929AB018B1BCF
:1012F000AB178B130130D5000230D6008A116C2059
:101300008A15AB1B8B17E53003178D0004308F0057
:10131000031300200430C200AB018B1BAB178B13EF
:10132000FA30D5008A1157208A15AB1B8B17C20BD8
:101330008C290230C200AB018B1BAB178B1396308C
:10134000D5008A1157208A15AB1B8B17C20B9B291E
:101350000800BC01BB010830F8001F08C739780439
:101360009F00AB018B1BAB178B131430D5008A1178
:1013700057208A15AB1B8B171F151F19BD29831604
:101380001E088312BB001E08BC003C08C3003B08BB
:10139000C2008E30F7004308F8004208F900FA0155
:1013A000F808031DDD297908F800F9010830F70273
:1013B000F808031DDD29F701E5290310F81BE429CE
:1013C000F90DF80DF703DD29F8137A08C50079083F
:1013D000C4007808C3007708C200C901C8013430CE
:1013E000C7008530C60042080319632ACA004608B0
:1013F0000319632ACA070318042A7F30CA02031C90
:10140000632A0319632A082A8130CA070318632A4A
:101410004A08F700F801F901FA014308CE00CE1797
:101420004408CD004508CC001830CA00CB014C1C44
:10143000312A4908FA07031C232AF90A031D232A23
:10144000F80A0319CB174808F907031C2A2AF80AD7
:101450000319CB174708C400C4174408F80703183A
:10146000CB17CB0DF80CF90CFA0CCE0CCD0CCC0C28
:101470000310CA0B162A0130F7070318632AF81B5A
:10148000482ACE0DFA0DF90DF80DF7030319632A5A
:10149000CE1F592AFA0A031D592AF90A031D592A8F
:1014A000F80A031D592AF80CF90CFA0CF70A03196B
:1014B000632A4308CB004708CB06CB1F612AF817E5
:1014C000672AF813672AF701F801F901FA017A0887
:1014D000C5007908C4007808C3007708C200450831
:1014E000C9004408C8004308C7004208C600CD012F
:1014F000C030CC007F30CB008830CA0046080319CA
:10150000432BD2004A080319432BD202031C8D2A15
:101510007F30D2070318432B932A8130D202031C59
:10152000432B0319432B5208F700F801F901FA0184
:10153000D1014708D000D0174808CF004908CE0095
:101540001930D2004D08CE020318B62A0130CF025E
:101550000318B62AD0020318B62AD1020318B62AF5
:10156000D10AD00ACF0A4D08CE07E82A4C08CF028C
:101570000318D12A0130D0020318D12AD10203184E
:10158000D12AD10AD00A4C08CF074D08CE07031C38
:10159000E82ACF0A031DE82AD00A031DE82AD10A47
:1015A000E82A4B088038D0020318E72A0130D1021C
:1015B0000318E72AD10A4B088038D0074C08CF0718
:1015C000031CC52AD00A031DC52AD10AC52A7A14CC
:1015D000D20BEB2AF62A0310CE0DCF0DD00DD10D74
:1015E0000310FA0DF90DF80DD30DA22A531CFE2A93
:1015F0000310F80CF90CFA0CD30C012BF7030319A8
:10160000432BD31B2A2B0310CE0DCF0DD00DD10DA4
:101610004D08CE020318162B0130CF020318162BEB
:10162000D0020318162BD102031C392B4C08CF0211
:101630000318212B0130D0020318212BD102031CE7
:10164000392B4B088038D00203182A2B0130D102E5
:10165000031C392BFA0A031D392BF90A031D392BF8
:10166000F80A031D392BF70A0319432BF80CF90C60
:10167000FA0C4708D2004B08D206D21F412BF817AC
:10168000472BF813472BF701F801F901FA018314EE
:10169000C501C4014830C3008530C2007A08C900C2
:1016A0007908C8007808C7007708C600803083181A
:1016B000C706CC01CD014308CB004708CB06420842
:1016C0000319462CCA00F700460803194F2CCA021A
:1016D0000319EB2B031CA92B4708D000D01748088F
:1016E000CF004908CE00CD010310D00CCF0CCE0C9A
:1016F000CD0CCA0B732BCB1F802B4C14632C4C10BE
:101700004A104C16453084008313782C4C12CB1BA6
:10171000932B4A1C9E2BD00CCF0CCE0CCD0CF70A71
:1017200003195E2C9E2BD01BA12B0310CD0DCE0DCB
:10173000CF0DD00DF70303195E2C932B4C170B2CF8
:101740004C134308CB00CB1FA72BD017572CD0131B
:10175000572C4608CA00F7004208CA024308D000C6
:10176000D0174408CF004508CE00CD010310D00C9F
:10177000CF0CCE0CCD0CCA0BB52BCB1FC22BCC146F
:10178000632CCC104A10CC16493084008313782C7B
:10179000CC12CB1BD52B4A1CE02BD00CCF0CCE0C83
:1017A000CD0CF70A03195E2CE02BD01BE32B0310A2
:1017B000CD0DCE0DCF0DD00DF70303195E2CD52B1B
:1017C000CC170B2CCC134708CB00CB1FE92BD01721
:1017D000572CD013572C4708D000D0174808CF00FB
:1017E0004908CE00CB1FF82BD0134C15632C4C119D
:1017F000CD014A10453084008313782CCB1B212C5B
:101800004308CB004A1C0B2CD00CCF0CCE0CCD0CBB
:10181000F70A03195E2CCD1F1C2CCE0A031D1C2CAD
:10182000CF0A031D1C2CD00A031D1C2CD00CCF0C7E
:10183000CE0CF70A03195E2C4C1BA02BCC1BE22B01
:10184000402C8030D006D01F292C632C4708CB00B9
:10185000362C4308CB00D008031D362CCF08031DBF
:10186000362CCE08031D362CF701572CD01B402CEC
:101870000310CD0DCE0DCF0DD00DF70B362C5E2CF9
:10188000CB1F442CD017572CD013572C4608F700E9
:101890004708D0004808CF004908CE00572C42081E
:1018A000F7004308D0004408CF004508CE00500898
:1018B000F8004F08F9004E08FA00962CF701F801DD
:1018C000F901FA01962CCD01CE09CF09D009CD0935
:1018D000CD0A031D712CCE0A031D712CCF0A0319EA
:1018E000D00A4C187F2BCC18C12B4C19F72B262C67
:1018F0000008CE07031C822CCF0A031D822CD00ABD
:1019000003194A1484030008CF07031C8A2CD00A49
:1019100003194A1484030008801F803AD007031873
:101920004A144C1A862BCC1AC82BFE2B7A08C000FE
:101930007908BF007808BE007708BD00AB018B1B9B
:10194000AB178B136430D5008A1157208A15AB1B57
:101950008B1708002030431E3030C4004208F700C7
:10196000F71FBA2CF709F70A7708C2002D30C40018
:10197000C317431478084208C8006430C9004908F6
:10198000F80148020318C72C4808F700D32CF701C8
:101990000830CA00C80DF70D490877020318F70090
:1019A000F80DCA0BCA2C7708C20030307807C50082
:1019B0004208C8000A30C9004908F8014802031863
:1019C000E42C4808F700F02CF7010830CA00C80DD5
:1019D000F70D490877020318F700F80DCA0BE72C3A
:1019E00030307707C70030307807C6004408F7006A
:1019F000303045020319002DC314C31B4315142DA9
:101A00004319142D4408C500C3180B2D303046026D
:101A100003190E2D4314C31BC314142D031D4314AB
:101A2000031D142D4508C60043191B2DC318262D70
:101A30004318312D3C2DAB018B1BAB178B13440886
:101A4000D4008A1195218A15AB1B8B17AB018B1B18
:101A5000AB178B134508D4008A1195218A15AB1B4F
:101A60008B17AB018B1BAB178B134608D4008A1165
:101A700095218A15AB1B8B17AB018B1BAB178B13F7
:101A80004708D4008A1195218A15AB1B8B170800D3
:101A900043084202031C672DB210320883168700E8
:101AA00083128714AB018B1BAB178B130C30D50043
:101AB0000430D6008A116C208A15AB1B8B17E330DB
:101AC00003178D0005308F0003130020852D420879
:101AD0004402031C852DB21032088316870083123E
:101AE0008710AB018B1BAB178B130C30D500043068
:101AF000D6008A116C208A15AB1B8B17E8300317B0
:101B00008D0005308F00031300208A110A16232A46
:101B10000B08C3008B13831603178C170C140000DB
:101B2000000083120313C31B8B170318C72D031761
:101B30000C087F390313C30003170D080313C400F7
:101B400003170F080313C500AB018B1BAB178B13D7
:101B50004308D4008A1195218A15AB1B8B174408C2
:101B600003178D000313450803178F0003130B0899
:101B7000C6008B13831603178C170C14000000008B
:101B800083120313C61B8B17C20BC72DEE2D031731
:101B90000C0D0E0D7F390313C30003170D0803133B
:101BA000C40003170F080313C500AB018B1BAB1751
:101BB0008B134308D4008A1195218A15AB1B8B1710
:101BC000440803178D000313450803178F008D0A7F
:0E1BD00003198F0A03100313C20B882D08009F
:1020000003081F398300B101FF30B2004114C1142D
:1020100083161F149F141F159F1107309C008313F4
:10202000FF30850000308800FF30860000308700D8
:102030008312B20032103208831687008312071011
:10204000B210320883168700831287100B1683168E
:102050000113C03083128B04B301013003178D00CC
:1020600083168C130C1483120C080313B90002306E
:1020700003178D0083168C130C1483120C080313A2
:10208000BA00033003178D0083168C130C148312CF
:102090000C080313B700043003178D0083168C134C
:1020A0000C1483120C080313B80083161F13831239
:1020B0001F179F1783169F1783121F1483161F1055
:1020C0009F101F159F110A128312ED2D0A16AB01E6
:1020D0008B1BAB178B13C830D5000A1257200A167A
:1020E000AB1B8B17AB018B1BAB178B130C30D400C6
:1020F0000A1295210A16AB1B8B17AB018B1BAB1772
:102100008B130130D500D6000A126C200A16AB1BC7
:102110008B17E93003178D0004308F000A128A15DF
:10212000031300200A168A11AB018B1BAB178B130C
:102130000130D5000230D6000A126C200A16AB1B03
:102140008B17F43003178D0004308F000A128A15A4
:10215000031300200A168A11AB018B1BAB178B13DC
:102160000130D5000430D6000A126C200A16AB1BD1
:102170008B17FF3003178D0004308F000A128A1569
:10218000031300200A168A11AB018B1BAB178B13AC
:102190000130D5000330D6000A126C200A16AB1BA2
:1021A0008B170A3003178D0005308F000A128A152D
:1021B000031300200A168A112830C200AB018B1BC2
:1021C000AB178B13FA30D5000A1257200A16AB1B37
:1021D0008B17C20BDE28AB018B1BAB178B130C309C
:1021E000D4000A1295210A16AB1B8B173308FA3E4E
:1021F0000318042F063E062FAB018B1BAB178B1366
:102200000130D500D6000A126C200A16AB1B8B17C2
:10221000153003178D0005308F000A128A1503133D
:1022200000200A168A11AB018B1BAB178B130130F0
:10223000D5000230D6000A126C200A16AB1B8B1791
:10224000203003178D0005308F000A128A15031302
:1022500000200A168A11AB018B1BAB178B130130C0
:10226000D5000330D6000A126C200A16AB1B8B1760
:10227000243003178D0005308F000A128A150313CE
:1022800000200A168A110A128A1566200A168A1177
:102290000A128A15A9210A168A114008C5003F08AA
:1022A000C4003E08C3003D08C2000A12A0270A1657
:1022B0007808B500AB018B1BAB178B130730D5002B
:1022C0000230D6000A126C200A16AB1B8B17390895
:1022D000C2000130C3000A128A15AA240A168A1104
:1022E000283003178D0005308F000A128A1503135A
:1022F00000200A168A113A08C2000130C3000A12EF
:102300008A15AA240A168A11293003178D00053070
:102310008F000A128A15031300200A168A11AB01D6
:102320008B1BAB178B130730D5000330D6000A1276
:102330006C200A16AB1B8B173708C2000130C30094
:102340000A128A15AA240A168A112A3003178D0048
:1023500005308F000A128A15031300200A168A110D
:102360003808C2000130C3000A128A15AA240A16CE
:102370008A112B3003178D0005308F000A128A1541
:10238000031300200A168A11AB018B1BAB178B13AA
:102390000F30D5000230D6000A126C200A16AB1B93
:1023A0008B173408C2000130C3000A128A15AA2410
:1023B0000A168A112D3003178D0005308F000A127E
:1023C0008A15031300200A168A11AB018B1BAB1769
:1023D0008B130F30D5000330D6000A126C200A167A
:1023E000AB1B8B173508C2000130C3000A128A15D7
:1023F000AA240A168A112F3003178D0005308F008A
:102400000A128A15031300200A168A113708C2001F
:102410003508C3003808C4000A12BF2F0A16AB01E2
:102420008B1BAB178B133230D5000A1257200A16BC
:10243000AB1B8B173408C2003908C3003A08C4002C
:102440000A128A15482D0A168A11AB018B1BAB178D
:102450008B133230D5000A1257200A16AB1B8B178C
:10246000042F0A128A1566200A168A110A128A1582
:10247000A9210A168A114008C5003F08C4003E0879
:10248000C3003D08C2000A12A0270A167808B5004A
:10249000AB018B1BAB178B130130D5000230D6007C
:1024A0000A126C200A16AB1B8B17313003178D00F4
:1024B00005308F000A128A15031300200A168A11AC
:1024C000AB018B1BAB178B130C30D5000230D60041
:1024D0000A126C200A16AB1B8B17AB018B1BAB17B8
:1024E0008B135230D4000A1295210A16AB1B8B179E
:1024F000AB018B1BAB178B134830D4000A1295210C
:102500000A16AB1B8B17AB018B1BAB178B133A3027
:10251000D4000A1295210A16AB1B8B17AB018B1B3B
:10252000AB178B130730D5000230D6000A126C208F
:102530000A16AB1B8B173408C2000130C3000A1205
:102540008A15AA240A168A11343003178D00053023
:102550008F000A128A15031300200A168A11AB0194
:102560008B1BAB178B130F30D5000230D6000A122D
:102570006C200A16AB1B8B173608C2000130C30053
:102580000A128A15AA240A168A11363003178D00FA
:1025900005308F000A128A15031300200A168A11CB
:1025A000AB018B1BAB178B130430D5000130D60069
:1025B0000A126C200A16AB1B8B17383003178D00DC
:1025C00005308F000A128A15031300200A168A119B
:1025D0003508C2000130C3000A128A15AA240A165F
:1025E0008A113E3003178D0005308F000A128A15BC
:1025F000031300200A168A11AB018B1BAB178B1338
:102600000130D5000330D6000A126C200A16AB1B2D
:102610008B17403003178D0005308F000A128A1582
:10262000031300200A168A11831686158312861951
:102630006F2BAB018B1BAB178B131430D5000A1219
:1026400057200A16AB1B8B17831686158312861923
:102650006F2B831686158312861D292B411C502B48
:102660004110321032088316870083120714AB0121
:102670008B1BAB178B130130D5000430D6000A1228
:102680006C200A16AB1B8B174B3003178D000530DF
:102690008F000A128A15031300200A168A116F2B65
:1026A0004114321032088316870083120710AB01E1
:1026B0008B1BAB178B130130D5000430D6000A12E8
:1026C0006C200A16AB1B8B174F3003178D0005309B
:1026D0008F000A128A15031300200A168A11831626
:1026E00086168312861ACA2BAB018B1BAB178B1372
:1026F0001430D5000A1257200A16AB1B8B1783160D
:1027000086168312861ACA2B831686168312861E95
:10271000842BC11CAB2BC110B2103208831687006A
:1027200083128714AB018B1BAB178B130C30D500B6
:102730000430D6000A126C200A16AB1B8B175330DC
:1027400003178D0005308F000A128A15031300202D
:102750000A168A11CA2BC114B210320883168700D8
:1027600083128710AB018B1BAB178B130C30D5007A
:102770000430D6000A126C200A16AB1B8B17583097
:1027800003178D0005308F000A128A1503130020ED
:102790000A168A11042F8316861483128618EE2BCC
:1027A000AB018B1BAB178B131430D5000A125720CB
:1027B0000A16AB1B8B178316861483128618ED2B13
:1027C000831686148312861CE02B0130B907390862
:1027D000313C0318ED2B3230B900102C831606154E
:1027E00083120619102CAB018B1BAB178B13143003
:1027F000D5000A1257200A16AB1B8B178316061535
:1028000083120619102C831606158312061D032C3D
:102810000130B9023908013C031C102C0130B90009
:102820000B08F7008B13013003178D0003133908D1
:1028300003178C0083168C130C1555308D00AA30AD
:102840008D008C148C18222C0C1177088312031322
:102850008B04AB018B1BAB178B130130D500D6005B
:102860000A126C200A16AB1B8B175D3003178D0004
:1028700005308F000A128A15031300200A168A11E8
:10288000AB018B1BAB178B130130D5000230D60088
:102890000A126C200A16AB1B8B17673003178D00CA
:1028A00005308F00031006300313C2000A128A1588
:1028B00088250A168A113908C2000130C3000A129D
:1028C0008A15AA240A168A11AB018B1BAB178B132E
:1028D000DF30D4000A1295210A16AB1B8B176D301E
:1028E00003178D0005308F000A128A15031300208C
:1028F0000A168A11AB018B1BAB178B130E30D50058
:102900000230D6000A126C200A16AB1B8B177030EF
:1029100003178D0005308F000A128A15031300205B
:102920000A168A11AB018B1BAB178B130130D50034
:102930000330D6000A126C200A16AB1B8B177430BA
:1029400003178D0005308F000A128A15031300202B
:102950000A168A11AB018B1BAB178B130130D50004
:102960000430D6000A126C200A16AB1B8B177F307E
:1029700003178D0005308F000A128A1503130020FB
:102980000A168A11042F8316861483128618E62CE1
:10299000AB018B1BAB178B131430D5000A125720D9
:1029A0000A16AB1B8B178316861483128618E52C28
:1029B000831686148312861CD82C0130BA073A0875
:1029C000313C0318E52C3230BA00082D8316061569
:1029D00083120619082DAB018B1BAB178B13143018
:1029E000D5000A1257200A16AB1B8B178316061543
:1029F00083120619082D831606158312061DFB2C5B
:102A00000130BA023A08013C031C082D0130BA001B
:102A10000B08F7008B13023003178D0003133A08DD
:102A200003178C0083168C130C1555308D00AA30BB
:102A30008D008C148C181A2D0C1177088312031337
:102A40008B04AB018B1BAB178B130130D500D60069
:102A50000A126C200A16AB1B8B178A3003178D00E5
:102A600005308F000A128A15031300200A168A11F6
:102A7000AB018B1BAB178B130130D5000230D60096
:102A80000A126C200A16AB1B8B17943003178D00AB
:102A900005308F00031006300313C2000A128A1596
:102AA00088250A168A113A08C2000130C3000A12AA
:102AB0008A15AA240A168A11AB018B1BAB178B133C
:102AC000DF30D4000A1295210A16AB1B8B179A30FF
:102AD00003178D0005308F000A128A15031300209A
:102AE0000A168A11AB018B1BAB178B130E30D50066
:102AF0000230D6000A126C200A16AB1B8B179D30D1
:102B000003178D0005308F000A128A150313002069
:102B10000A168A11AB018B1BAB178B130130D50042
:102B20000330D6000A126C200A16AB1B8B17A1309B
:102B300003178D0005308F000A128A150313002039
:102B40000A168A11AB018B1BAB178B130130D50012
:102B50000430D6000A126C200A16AB1B8B17AC305F
:102B600003178D0005308F000A128A150313002009
:102B70000A168A11042F8316861483128618DE2DF6
:102B8000AB018B1BAB178B131430D5000A125720E7
:102B90000A16AB1B8B178316861483128618DD2D3D
:102BA000831686148312861CD02D0130B707370890
:102BB000623C0318DD2D6330B700002E8316061526
:102BC00083120619002EAB018B1BAB178B1314302D
:102BD000D5000A1257200A16AB1B8B178316061551
:102BE00083120619002E831606158312061DF32D77
:102BF0000130B70237080A3C031C002E0A30B70028
:102C00000B08F7008B13033003178D0003133708ED
:102C100003178C0083168C130C1555308D00AA30C9
:102C20008D008C148C18122E0C117708831203134C
:102C30008B04AB018B1BAB178B130130D500D60077
:102C40000A126C200A16AB1B8B17B73003178D00C6
:102C500005308F000A128A15031300200A168A1104
:102C6000AB018B1BAB178B130130D5000230D600A4
:102C70000A126C200A16AB1B8B17C13003178D008C
:102C800005308F00031006300313C2000A128A15A4
:102C900088250A168A113708C2000130C3000A12BB
:102CA0008A15AA240A168A11C73003178D00053029
:102CB0008F000A128A15031300200A168A11042FA6
:102CC0008316861483128618832EAB018B1BAB17D9
:102CD0008B131430D5000A1257200A16AB1B8B1722
:102CE0008316861483128618822E83168614831206
:102CF000861C752E0130B8073808623C0318822EF6
:102D00006330B800A52E8316061583120619A52E6A
:102D1000AB018B1BAB178B131430D5000A12572055
:102D20000A16AB1B8B178316061583120619A52EE0
:102D3000831606158312061D982E0130B802380836
:102D40000A3C031CA52E0A30B8000B08F7008B13B1
:102D5000043003178D000313380803178C00831603
:102D60008C130C1555308D00AA308D008C148C18E6
:102D7000B72E0C117708831203138B04AB018B1B46
:102D8000AB178B130130D500D6000A126C200A163F
:102D9000AB1B8B17C93003178D0005308F000A124B
:102DA0008A15031300200A168A11AB018B1BAB177F
:102DB0008B130130D5000230D6000A126C200A169F
:102DC000AB1B8B17D33003178D0005308F0003101A
:102DD00006300313C2000A128A1588250A168A11C2
:102DE0003808C2000130C3000A128A15AA240A1644
:102DF0008A11D93003178D0005308F000A128A1509
:102E0000031300200A168A11F62863000A148A1494
:102E10000A158207FC28312ACB2BC32CBB2D602E30
:02400E00323F3F
:00000001FF
;PIC16F877A
;CRC=EDD1  CREATED="21-Dec-22 08:42"
