:1000000008308A0000280000FF00030E8301A100D1
:100010000A08A0008A010408A2007708A300780853
:10002000A4007908A5007A08A60003170D08031399
:10003000A70003170F080313A80003170C080313E6
:10004000A90003170E080313AA00831383128B1D44
:100050002B280B184C28220884002308F7002408BA
:10006000F8002508F9002608FA00270803178D0074
:100070000313280803178F000313290803178C00A4
:1000800003132A0803178E00031320088A00210E89
:100090008300FF0E7F0E09008A110A126C280A10D5
:1000A0008A100A11820728340C3401340634553082
:1000B00084008313000803196B280130F800F7014E
:1000C000F70B6028F80B5F284A30F700F70B66281B
:1000D0006928800B5D280800831686148312861C0D
:1000E00085281430D5005720831686148312861C69
:1000F000852886148316861083120611831606112E
:100100008312861183168611831283168614831236
:10011000861885280B108A110A122B284E24C92212
:100120005410C4273A0020275024A029CD20522A59
:100130002023412720100001201020102010201023
:1001400020102010201020100001C2205410D12AAD
:10015000412A0001D4205410D12A412A20005018ED
:10016000B3280812B4280816831608128312D01870
:10017000BB288812BC28881683168812831250194F
:10018000C3280813C4280817831608138312D0192C
:10019000CB288813CC288817831688130000831275
:1001A000081583160811D428831208118316081124
:1001B00083120800D1018316081600308312081A32
:1001C0000130D1048316881600308312881A01305A
:1001D000F7000310F70D7708D104831608170030D5
:1001E0008312081B0130F700F70DF70DFC30F705FF
:1001F0007708D1048316881700308312881B0130DA
:10020000F700F70DF70DF70DF830F7057708D10473
:100210005108F80008000810831608100816881600
:100220000817881783128814831688100000831219
:1002300008158316081100008312DA207808D00010
:10024000081183160811000083120815831608117F
:1002500000008312DA207808CF00081183160811F5
:1002600008128812081388138312500EF700F0301A
:10027000F70577084F04F8007808CF00CF1F422910
:1002800083160E29CD08031D472908104829081494
:10029000831608100000831288108316881000004F
:1002A000831208118316081183124E0ECF000F30EF
:1002B000CF054F08D000AF204E080F39CF00D00037
:1002C000AF2008002C102C08831687008312AC1076
:1002D0002C088316870083122C112C0883168700A4
:1002E0008312AC112C088316870008128812081399
:1002F000881308110811081008108810881083123C
:100300000810831608108312881083168810831231
:100310000811831608118312AB018B1BAB178B13CB
:100320000F30D5005720AB1B8B170130BB003B08AB
:10033000033C031CA9290330D000AF20AB018B1B69
:10034000AB178B130530D5005720AB1B8B17BB0A9F
:1003500097290230D000AF20BB013B08033C031CAF
:10036000BA293B084F20BC00CD013C08CE000B2130
:10037000BB0AAD298A150A1232284A0BC129CB01C2
:10038000D5294A08023C031DC8294030CB00D52995
:100390004A08033C031DCF291430CB00D5294A0855
:1003A000043C031DD5295430CB0001304902CB0752
:1003B0004B088038CC00CD014C08CE000B21080042
:1003C00048080C3A0319EB29063A0319F929023AAD
:1003D0000319FF29042ACD010130CE000B21AB0106
:1003E0008B1BAB178B130230D5005720AB1B8B1721
:1003F000092A0130C9000230CA00BD21092ACD01F5
:100400001030CE000B21092A0130CD004808CE0063
:100410000B2108000B08BB008B13831603178C17E6
:100420000C140000000083120313BB1B8B1703176F
:100430000C087F3903195E2A0313BB0003170D084C
:100440000313BC0003170F080313BD003B08C800CB
:10045000E0213C0803178D0003133D0803178F00AC
:1004600003130B08BE008B13831603178C170C1491
:100470000000000083120313BE1B8B1703170C0D23
:100480000E0D7F3903195E2A0313BB0003170D08F5
:100490000313BC0003170F080313BD003B08C8007B
:1004A000E0213C0803178D0003133D0803178F005C
:1004B0008D0A03198F0A03130A2A0317031308006E
:1004C000BB01831686148312861C682A0130BB0088
:1004D000831606158312061D6F2A0230BB00831691
:1004E00086158312861D762A0330BB003B0B8A2AB1
:1004F0008714AC102C0883168700831207112C1167
:100500002C088316870083128711AC112C088316E0
:10051000870083123B08023C031DA02A8710AC1001
:100520002C0883168700831207152C112C088316BC
:10053000870083128711AC112C0883168700831261
:100540003B08033C031DB62A8710AC102C08831609
:100550008700831207112C112C0883168700831241
:100560008715AC112C088316870083128A150A128E
:10057000B0288E30F7003C08F8003B08F900FA017B
:10058000F808031DCD2A7908F800F9010830F702B0
:10059000F808031DCD2AF701D52A0310F81BD42A29
:1005A000F90DF80DF703CD2AF813080048080319D0
:1005B000462BD0004C080319462BD0070318E72A16
:1005C0007F30D002031C462B0319462BEB2A8130C7
:1005D000D0070318462B5008F700F801F901FA017B
:1005E0004908D400D4174A08D3004B08D200183069
:1005F000D000D101521C142B4F08FA07031C062B04
:10060000F90A031D062BF80A0319D1174E08F9073A
:10061000031C0D2BF80A0319D1174D08CA00CA177D
:100620004A08F8070318D117D10DF80CF90CFA0C89
:10063000D40CD30CD20C0310D00BF92A0130F707DD
:100640000318462BF81B2B2BD40DFA0DF90DF80DC2
:10065000F7030319462BD41F3C2BFA0A031D3C2B2E
:10066000F90A031D3C2BF80A031D3C2BF80CF90C6E
:10067000FA0CF70A0319462B4908D1004D08D10698
:10068000D11F442BF8174A2BF8134A2BF701F80116
:10069000F901FA0108003F080319102CCB004308A8
:1006A0000319102CCB02031C5A2B7F30CB070318E5
:1006B000102C602B8130CB02031C102C0319102C42
:1006C0004B08F700F801F901FA01CA014008C90016
:1006D000C9174108C8004208C7001930CB004608B6
:1006E000C7020318832B0130C8020318832BC902E9
:1006F0000318832BCA020318832BCA0AC90AC80A23
:100700004608C707B52B4508C80203189E2B0130C1
:10071000C90203189E2BCA0203189E2BCA0AC90AD3
:100720004508C8074608C707031CB52BC80A031DA0
:10073000B52BC90A031DB52BCA0AB52B440880384E
:10074000C9020318B42B0130CA020318B42BCA0A19
:1007500044088038C9074508C807031C922BC90AFA
:10076000031D922BCA0A922B7A14CB0BB82BC32BE6
:100770000310C70DC80DC90DCA0D0310FA0DF90DF0
:10078000F80DCC0D6F2B4C1CCB2B0310F80CF90C77
:10079000FA0CCC0CCE2BF7030319102CCC1BF72B27
:1007A0000310C70DC80DC90DCA0D4608C7020318AE
:1007B000E32B0130C8020318E32BC9020318E32B13
:1007C000CA02031C062C4508C8020318EE2B013090
:1007D000C9020318EE2BCA02031C062C44088038F9
:1007E000C9020318F72B0130CA02031C062CFA0AAF
:1007F000031D062CF90A031D062CF80A031D062CFE
:10080000F70A0319102CF80CF90CFA0C4008CB006D
:100810004408CB06CB1F0E2CF817142CF813142CFD
:10082000F701F801F901FA0108003C08C30040088B
:10083000C306C31F202C03110310BC1B0314532C2D
:100840003C08C3003F08C4003B08C40203192E2C17
:10085000C31F532C0308013A8300532C4008C400E3
:100860003C08C40203193A2CC31F532C0308013A55
:100870008300532C4108C4003D08C4020319462CD0
:10088000C31F532C0308013A8300532C4208C400B1
:100890003E08C4020319522CC31F532C0308013A0B
:1008A0008300532C031008001F151F19552C8316A5
:1008B0001E088312AF001E08B0003008BC002F08CD
:1008C000BB00B922CB014030CA001C30C9008B30BC
:1008D000C8007A08CF007908CE007808CD007708E4
:1008E000CC00D6227A08BE007908BD007808BC008A
:1008F0007708BB007A08C2007908C1007808C000F8
:100900007708BF00C601C030C5007F30C400883002
:10091000C3004B237A08B4007908B3007808B2000A
:100920007708B1003408C2003308C1003208C000A3
:100930003108BF00C601C5012030C4008230C300A9
:100940004B237A08B8007908B7007808B600770812
:10095000B5003808BE003708BD003608BC003508B1
:10096000BB00C201C1012030C0008330BF0015248C
:10097000031CD82C8710AC102C0883168700831218
:1009800007112C112C088316870083128711AC11D4
:100990002C0883168700831207132C132C08831648
:1009A000870083128717AC132C08831687008312E5
:1009B0003808BE003708BD003608BC003508BB004B
:1009C000C201C1013830C0008330BF0015240318B4
:1009D000EB2C031D1C2DBE01BD012030BC0083305B
:1009E000BB003808C2003708C1003608C00035080F
:1009F000BF0015240318FE2C031D1C2D8714AC10FA
:100A00002C0883168700831207112C112C088316DB
:100A1000870083128711AC112C088316870083127C
:100A200007132C132C088316870083128717AC1327
:100A30002C08831687008312BE01BD013830BC002C
:100A40008330BB003808C2003708C1003608C00038
:100A50003508BF00152403182F2D031D602D3808FD
:100A6000BE003708BD003608BC003508BB00C20117
:100A7000C1016030C0008330BF0015240318422D2F
:100A8000031D602D8710AC102C088316870083127D
:100A900007152C112C088316870083128711AC11BF
:100AA0002C0883168700831207132C132C08831637
:100AB000870083128717AC132C08831687008312D4
:100AC000BE01BD016030BC008330BB003808C200ED
:100AD0003708C1003608C0003508BF0015240318C8
:100AE000732D031DA42D3808BE003708BD0036083D
:100AF000BC003508BB00C201C1010C30C00084300D
:100B0000BF0015240318862D031DA42D8710AC10DB
:100B10002C0883168700831207112C112C088316CA
:100B2000870083128715AC112C0883168700831267
:100B300007132C132C088316870083128717AC1316
:100B40002C08831687008312BE01BD010C30BC0047
:100B50008430BB003808C2003708C1003608C00026
:100B60003508BF0015240318B72D031DD52D871098
:100B7000AC102C0883168700831207112C112C0847
:100B80008316870083128715AC112C088316870003
:100B9000831207172C132C088316870083128717DC
:100BA000AC132C088316870083128A150A12BB28FF
:100BB000831686168312861EEF2DAB018B1BAB1797
:100BC0008B131430D5005720AB1B8B17831686165A
:100BD0008312861AAE0A2E08023C0319AE01831650
:100BE00086168312861AEF2D2E0BFD2D8716AC125A
:100BF0002C0883168700022E83128712AC122C0851
:100C00008316870006178312061F182EAB018B1B55
:100C1000AB178B131430D5005720AB1B8B178316E3
:100C200006178312061BAD0A2D08023C0319AD01FD
:100C3000831606178312061B182E2D0B262E071758
:100C40002C132C08831687002B2E831207132C13CA
:100C50002C088316870083128A150A12E728831846
:100C6000342E503084008313F701F801F901FA01A2
:100C7000D001D101D201D3014F084E044D044C04E0
:100C80000319722E2030D4000310C80DC90DCA0DEF
:100C9000CB0DD00DD10DD20DD30D4F085302031D36
:100CA0005B2E4E085202031D5B2E4D085102031DA0
:100CB0005B2E4C085002031C6C2E4C08D0024D08D1
:100CC000031C4D0FD1024E08031C4E0FD2024F08D9
:100CD000031C4F0FD3020314F70DF80DF90DFA0D95
:100CE000D40B442E50088000840A51088000840AE6
:100CF00052088000840A5308800008000408C000DD
:100D00003F08C20003199D2E3E08CB003D08CA00D3
:100D10003C08C9003B08C800CF01CE012030CD00FF
:100D20008230CC00D6227A08BE007908BD0078084F
:100D3000BC007708BB00C20B842E3E08CB003D08E8
:100D4000CA003C08C9003B08C8004808B63CC800B7
:100D5000FA014908CC00C9170310C90CCA0CCB0C06
:100D6000FA0CF90CF80CF70CC80BAC2ECC1FC32EE8
:100D7000F709F809F909FA09F70A0319F80A031932
:100D8000F90A0319FA0A7A08BE007908BD00780842
:100D9000BC007708BB00BE1FDA2EC003C016BB091B
:100DA000BC09BD09BE09BB0A0319BC0A0319BD0A67
:100DB0000319BE0A3B30C7009A30C600CA30C500CE
:100DC000C4010A30C2003F080319C00A83143B3033
:100DD000840083133E08CB003D08CA003C08C900CC
:100DE0003B08C8004708CF004608CE004508CD00A4
:100DF0004408CC002F267808F708031D122F3F0A5D
:100E000042020319122F40080319142F0F3942020E
:100E100003190C2F0318442FC01B442F401B142F01
:100E20002030402F2030C005C01E222FC0123F08A6
:100E3000031DC0037708C0002D30C800E021400822
:100E4000F700C0013F084202031D302F7708C000A1
:100E50002E30C800E0214008F7002030C0050030E7
:100E60003030C01E402FC0123F08031DC00377085A
:100E7000C0002D30C800E0214008F700C00130302C
:100E8000F7077708C800E02183104708CB00460821
:100E9000CA004508C9004408C800CF01CE01CD01F1
:100EA0000A30CC002F267A08C7007908C6007808D7
:100EB000C5007708C400C20BE62E8A110A12D22F91
:100EC0001F151F19612F83161E088312AF001E08FD
:100ED000B0003008BC002F08BB00B922CB01403065
:100EE000CA001C30C9008B30C8007A08CF007908CE
:100EF000CE007808CD007708CC00D6227A08BE0054
:100F00007908BD007808BC007708BB007A08C200E9
:100F10007908C1007808C0007708BF00C601C0305A
:100F2000C5007F30C4008830C3004B237A08B4006A
:100F30007908B3007808B2007708B1003408C2001D
:100F40003308C1003208C0003108BF00C601C50126
:100F50002030C4008230C3004B237A08B8007908DF
:100F6000B7007808B6007708B5000130C900CA009C
:100F7000BD218E3003178D0000308F0003130A222D
:100F80000A30C9000130CA00BD2101308400380890
:100F9000BE003708BD003608BC003508BB00013074
:100FA000BF007E2E2030C800E0214330C800E02181
:060FB0008A150A12EA286E
:1010000003081F398300FF30AC00AD01AE01831629
:101010001F149F141F159F1107309C008313C030AD
:1010200083128B048B15831601131F1383121F1752
:101030009F1783169F1783121F1483161F109F106C
:101040001F119F110030F80083121F08C739780460
:101050009F00FF3083168600003087008312AC00AB
:101060008A1162298A15B901BA01933003178D00DC
:1010700000308F008A1103130A228A158710AC10E2
:101080002C0883168700831207112C112C08831655
:10109000870083128711AC112C08831687008312F6
:1010A00007122C122C088316870083128712AC12A9
:1010B0002C0883168700831207132C132C08831621
:1010C000870083128713AC132C0883168700043023
:1010D0008312BB00AB018B1BAB178B13FA30D5000F
:1010E0008A1157208A15AB1B8B17BB0B6A289C30C3
:1010F00003178D0000308F008A1103130A228A150E
:10110000831606168312061EC3280130C90002305A
:10111000CA008A11BD218A15A53003178D00003041
:101120008F008A1103130A228A15831686178312E9
:10113000861F9C280130BA008316861483128618F5
:10114000AA288316061583120619AA28831686155F
:1011500083128619BA01BA08031DB7288A11602ABA
:101160008A158713AC132C088316870083123A0B59
:10117000C2288A11542C8A158717AC132C088316A1
:1011800087008312E5280130C9000230CA008A11A5
:10119000BD218A15AA3003178D0000308F008A11F7
:1011A00003130A228A158710AC102C0883168700B7
:1011B000831207112C112C088316870083128711C4
:1011C000AC112C088316870083128A11D82D8A153A
:0A11D0008A11602F8A158028630041
:02400E00323F3F
:00000001FF
;PIC16F877A
;CRC=F3BB  CREATED="22-Nov-22 11:49"
